:0300000002142FB8
:0C142F00787FE4F6D8FD75813E020FEED8
:1010FD000A0D004C44522053454E534F52204F552C
:10110D00545055540A0D004C6967687420696E740B
:10111D00656E736974792D000A0D0A004F75747030
:10112D00757420696E20766F6C746167650A0D00A9
:10113D00566F6C746167653A2D0053706565642058
:10114D006F66204361720A0D0053706565643A2D18
:08115D00004B2F68720A0D001F
:100FEE007F807E2512127B1213007BFF7A1079FD13
:100FFE00121404120E947BFF7A1079FD121404D28F
:10100E0000C2011211CD8E218F22C200C201121117
:10101E00CD8E238F24AC23AD24E4120B2DE4FBFAEA
:10102E0079A078401208F87B007AF0797F78451223
:10103E000A01120B668E238F24C200D2011211CD2B
:10104E008E258F267C007D78120C4F7C0F7DFF1233
:10105E000C618E258F267BFF7A1179001214047B8A
:10106E00FF7A117914121404AC21AD22E4120B2D67
:10107E007B007AF0797F7845120A01E4FBFA79C891
:10108E0078421208F8120B668E218F221211657F9C
:10109E002512144F7BFF7A1179251214047BFF7AE7
:1010AE001179291214047BFF7A11793D121404ACC4
:1010BE0023AD24E4120B2D120D277BFF7A11792517
:1010CE001214047BFF7A1179471214047BFF7A11F4
:1010DE007956121404AF26AE251211657BFF7A11D4
:0F10EE00795E1214047FC87E001213E3020FF81C
:04145E00302E3000FC
:10127B00759850438920EF8EF0120CFA129F1C20A8
:10128B0012A4258012A6384012AB708012B0E10078
:10129B00000012A4758DFC80178012758DFE8010D6
:1012AB00758DFF800B758DFF4387808003758DFDDA
:0312BB00D28E22AE
:08144F008F993099FDC299222A
:10140400120BE76010F5993099FDC299740129F91E
:06141400E43AFA80EB222D
:06122F008B3C8A3D893E64
:10123500E4FF120BE7600A0F740129F9E43AFA801A
:10124500F1E4FE1FEEC39F502CAB3CAA3DA93E8E98
:1012550082758300120C00FD8F82758300120C00CD
:101265008E82758300120C2D8F82758300ED120C12
:051275002D0E1F80CFCB
:01127A002251
:041165008E338F3402
:10116900E4FBE53445336056C3E53364809480502D
:10117900097F000BEF2435F8762DE53445336027D8
:10118900AE33AF347C007D0A120CB6ED2430FF7407
:10119900352BF8A607AE33AF347C007D0A120CB6A6
:1011A9008E338F340B80D374352BF8E4F6FB7A0039
:1011B900793512122F7B007A0079350214047F30B9
:0311C90012144FAE
:0111CC002200
:080D27008F2A8E298D288C27EC
:100D2F00753100753201E4FFFEFDFCAB2AAA29A93B
:100D3F0028A827120A9E70097BFF7A14795E021485
:100D4F0004E4FFFEFDFCAB2AAA29A928A827120A52
:100D5F009E50187F2D12144FAF2AAE29AD28AC2705
:100D6F00120B178F2A8E298D288C27AF2AAE29AD0B
:100D7F0028AC27120B668E2F8F301211657F2E1223
:100D8F00144FAC2FAD30E4120B2DA804A905AA0601
:100D9F00AB07AF2AAE29AD28AC271208038F2E8ED2
:100DAF002D8D2C8C2BE4FFFEFDFCAB2EAA2DA92C38
:100DBF00A82B120A9E60025003020E8EE5324531B7
:100DCF007003020E93E4FFFE7D207C41AB2EAA2D13
:100DDF00A92CA82B1208F8E4FBFA7980783F120AA5
:100DEF009E60094007E4F52FF5308019E4FFFE7D82
:100DFF00207C41AB2EAA2DA92CA82B1208F8120B80
:100E0F00668E2F8F30E5302430FF12144FE53045BA
:100E1F002F7013AF2EAE2DAD2CAC2BFBFA79C878FB
:100E2F00421208F88035E4FFFE7D207C41AB2EAAEC
:100E3F002DA92CA82B1208F8C004C005C006C007A6
:100E4F00AC2FAD30E4120B2DA804A905AA06AB07F1
:100E5F00D007D006D005D0041208038F2E8E2D8D0B
:100E6F002C8C2BE4FFFEFDFCAB2EAA2DA92CA82B5E
:100E7F00120A9E6003020DCBF531F532020DCB7FC6
:040E8F003012144FBA
:010E9300223C
:06133E008F278D288B298A
:1013440012143BAF271213C112141A920020001773
:10135400AF281213C112141A920020000AAF2912E6
:0A13640013C112141A92000214467D
:0412BE008F2E8D2FB3
:1012C20012143BAF2E1213C112141A9200200028DE
:1012D200AF2F1213C112141A920020001B12143BDA
:1012E200E52E4401FF1213C112141A9200200008C5
:0D12F20012139A8F30121457121446AF30A9
:0112FF0022CC
:1013E300D3EF9400EE940040177DFAAC051DEC702A
:1013F300FA7DF7AC051DEC70FAEF1F70E31E80E079
:0114030022C6
:0B143B00D295D294D295D294C2942294
:09144600C295C294D295D2942201
:1013C1007E07EE3395E0C3648094804014C295A8F3
:1013D10006EF088002C313D8FC139294D2951E80A5
:0113E100E12A
:0113E20022E8
:10139A00E4FF7E07EE3395E0C3648094804017D261
:1013AA009530940DA8067401088002C333D8FC4214
:0613BA0007C2951E80DE53
:0113C000220A
:10141A00C295D294D29500000000209404C295C3CC
:05142A0022C295D3224F
:07145700C295D294D2952248
:1011CD00E4FDFCC2A0C2A3D2A2D2A3C2A3D2A2D2DA
:1011DD00A3C2A3D2A2D2A3C2A3A20092A2D2A3C29F
:1011ED00A3A20192A2D2A3C2A3D2A3C2A3D2A37BD4
:1011FD000BEB3395E0C364809480401FC2A330A1F4
:10120D00157E007401A803088005C333CE33CED8F4
:10121D00F94205EE4204D2A31B80D6D2A0AE04AF94
:01122D0005BB
:01122E00229D
:10136E0020204461792D0053756E004D6F6E005430
:10137E0075730057656400546875004672690053B2
:0C138E006174000A0D00446174652D00BC
:100E94007D027FD01212BE8F29E52975F00A8424C1
:100EA40030FF12144FE52975F00A84E5F02430FF71
:100EB40012144F7F3A12144F7D017FD01212BE8F4D
:100EC40027E527C4540F2430FF12144FE527540F8D
:100ED4002430FF12144F7F3A12144FE4FD7FD012D6
:100EE40012BE8F28E528C4540F2430FF12144FE596
:100EF40028540F2430FF12144F7BFF7A13796E129B
:100F040014047D037FD01212BE8F2AE52A14B4077D
:100F140000505C900F2575F003A4C58325F0C583AC
:100F240073020F3A020F42020F4A020F52020F5A83
:100F3400020F62020F6A7BFF7A137975802E7BFFA2
:100F44007A13797980267BFF7A13797D801E7BFF63
:100F54007A13798180167BFF7A137985800E7BFF63
:100F64007A13798980067BFF7A13798D1214047BB6
:100F7400FF7A1379911214047BFF7A137994121473
:100F8400047D047FD01212BE8F2B7D057FD01212F8
:100F9400BE8F2C7D067FD01212BE8F2DE52BC4543C
:100FA4000F2430FF12144FE52B540F2430FF12147A
:100FB4004F7F2F12144FE52C75F00A842430FF1252
:100FC400144FE52C75F00A84E5F02430FF12144F19
:100FD4007F2F12144FE52DC4540F2430FF12144FE9
:0A0FE400E52D540F2430FF02144FD6
:10130000E4FBFD7FD012133EE4FB7D017FD012137E
:101310003E7B097D027FD012133E7B037D037FD08D
:1013200012133E7B057D047FD012133E7B0A7D05A0
:0E1330007FD012133E7B217D067FD002133E3C
:10080000020BD2E86480F8E933E83360110460F049
:10081000ED33EC337009E8FCE9FDEAFEEBFF22045E
:1008200060DED3EB9FEA9EE99DE8C2E78CF0C2F759
:1008300095F0400CE8CCF8E9CDF9EACEFAEBCFFB25
:10084000120B9D85D0F05804700320D5B3E80470D6
:10085000075002B2D5020BDC92D5EC0460F7E4CC71
:10086000C0E0C398F8603B94186008400DD0E0FBEE
:10087000020BB4E4FBFAC9FC8028E830E406E4C9C2
:10088000FBE4CAFCE830E305E4C9CACBFCE8540742
:100890006010F8C3E913F9EA13FAEB13FBEC13FC4D
:1008A000D8F130F52FC3E49CFCEF9BFFEE9AFEEDF0
:1008B00099FDD0E0FBEF4E4D4C701222DB03020B92
:1008C000D9EC2CFCEF33FFEE33FEED33FDED30E7DA
:1008D000EB020BB4EF2BFFEE3AFEED39FDD0E0FB5F
:1008E00050130BBB0003020BDCED13FDEE13FEEF08
:0808F00013FFEC13FC020BB432
:1008F800EC4D6011E8497017ED33EC3304600DE4FA
:10090800FCFFFEFD22E933E8330470F8020BD21233
:100918000B9D58046009E4CC248150062850090234
:100928000BDC284003020BD9C0E0EB4A7044B980C5
:1009380006D0E0FB020BC8EF4E701CBD8008EBFF31
:10094800EAFEE9FD80EBE98DF0A4FEE5F00209E19D
:10095800E9CDF9EAFEEBFFEF89F0A4FCE5F0CE89DA
:10096800F0A42EFFE435F0CD89F0A42DFEE435F097
:100978008067EF4E7005BD80D780C3EF8BF0A4ACC5
:10098800F0EE8BF0A42CFCE435F0F8EF8AF0A42C00
:10099800E5F038FCE433CB8DF0A42CFCE5F03BF813
:1009A800EE8AF0A42CFCE5F038F8E433CF89F0A403
:1009B8002CFCE5F038CF3400CE89F0A42FFFE5F009
:1009C8003EFEE433C98DF0A42EFEE5F039CD8AF061
:1009D800A42FFFE5F03EFEE43DFD33D0E0FB5007D9
:1009E8000BBB000F020BDCEC2CFCEF33FFEE33FEED
:0609F800ED33FD020BB41B
:1009FE00020BDCEC5D046005E859047003020BD2B7
:100A0E00120B9D580460F6EC4860F2EC7004FDFE8B
:100A1E00FF22C860DB2481C85009C39860025006CB
:100A2E00020BD99850CAF582E9294B4A7005AB8260
:100A3E00020BC875F0007C1A7880C3EF9BEE9AED1E
:100A4E0099400DC3EF9BFFEE9AFEED99FDE842F043
:100A5E00DC23ACF0D0E0FFD0E0FED0E0FDAB822096
:100A6E00E7101BEB60BAEC2CFCEF33FFEE33FEED20
:100A7E0033FD020BB4E803F830E705C0F075F00063
:100A8E00EF2FFFEE33FEED33FD40B830E7C280AA04
:100A9E0074F8CC6480CCC86480C8F58204604FC3FF
:100AAE00EB9FF5F0EA9E42F0E99D42F0E89C45F09E
:100ABE00603C501DE5825FFFE582D313CB5BCBF428
:100ACE002B5582FB50280ABA002409B90020088051
:100ADE001DE5825BFBE582D313CF5FCFF4C3132FEB
:100AEE005582FF50090EBE00050DBD00010CC3EB73
:100AFE009FF5F0EA9E42F0E99D42F0E89C45F060D9
:090B0E0007CC4820E701B3EC22FA
:100B1700ED33EC33600A047003BD8004ECB2E7FCEC
:010B270022AB
:100B280075F020800E75F010800575F0087D007E48
:100B3800007F003392D530D503120CECEC33401013
:100B4800EF33FFEE33FEED33FDEC33FCD5F0ED2251
:0E0B5800E5F0247EA2D513CC92E7CDCEFF228D
:100B6600EDD2E7CD33EC3392D524814006E4FFFE87
:100B7600FDFC22FCE4CFCECDCC24E0501174FF80E6
:100B8600EDC3CC13CCCD13CDCE13CECF13CF047083
:070B9600F030D5DE020CEC8B
:100B9D00E9D2E7C933E833F892D5EDD2E7CD33EC9E
:070BAD0033FC5002B2D52217
:100BB400EC30E7100FBF000C0EBE00080DBD0004A2
:100BC4000BEB6014A2D5EB13FCED92E7FD2274FF4E
:100BD400FCFDFEFF22E480F8A2D574FF13FC7D80A7
:030BE400E480EFBB
:100BE700BB010689828A83E0225002E722BBFE020C
:090BF700E32289828A83E493223F
:100C0000BB010CE58229F582E5833AF583E02250A9
:100C100006E92582F8E622BBFE06E92582F8E222F3
:0D0C2000E58229F582E5833AF583E493220D
:100C2D00F8BB010DE58229F582E5833AF583E8F0FD
:100C3D00225006E92582C8F622BBFE05E92582C8A9
:020C4D00F22291
:100C4F00EF8DF0A4A8F0CF8CF0A428CE8DF0A42EB9
:020C5F00FE2273
:100C6100BC000BBE0029EF8DF084FFADF022E4CC77
:100C7100F875F008EF2FFFEE33FEEC33FCEE9DEC40
:100C8100984005FCEE9DFE0FD5F0E9E4CEFD22ED86
:100C9100F8F5F0EE8420D21CFEADF075F008EF2FD0
:100CA100FFED33FD4007985006D5F0F222C398FDC1
:050CB1000FD5F0EA225E
:100CB600C2D5EC30E709B2D5E4C39DFDE49CFCEE59
:100CC60030E715B2D5E4C39FFFE49EFE120C61C364
:100CD600E49DFDE49CFC8003120C6130D507C3E45F
:060CE6009FFFE49EFE22C8
:0E0CEC00C3E49FFFE49EFEE49DFDE49CFC2219
:100CFA00D083D082F8E4937012740193700DA3A389
:100D0A0093F8740193F5828883E473740293B5F0BF
:0D0D1A00067403936860E9A3A3A3A380D827
:00000001FF
